:1000000019C033C032C031C030C02FC02EC02DC087
:100010002CC02BC02AC029C028C027C026C025C09C
:1000200024C023C037C121C020C074C01EC01DC061
:100030001CC01BC011241FBECFEFD4E0DEBFCDBF5C
:1000400011E0A0E0B1E0EAE0F9E002C005900D9215
:10005000AC37B107D9F722E0ACE7B1E001C01D929F
:10006000AA3CB207E1F7C9D14EC4CACFCF92DF9202
:10007000EF92FF920F931F93CF93DF93CAE8D1E0E3
:100080000AEC12E0C12CD12C760169917991899109
:10009000999120E030E040E250E4F4D120E030E4F7
:1000A0004CE156E476D39B01AC0173D39B01AC01C8
:1000B000C701B601E8D16B017C01C017D10729F750
:1000C00020E030E040EA52E442D2CAD3DF91CF913F
:1000D0001F910F91FF90EF90DF90CF900895ECE784
:1000E000F0E0808180648083EAE7F0E080818760CF
:1000F0008083AEE7B0E08C9181608C9388E0808350
:100100008081806880830895EAE7F0E080818064E0
:10011000808308951F920F920FB60F9211241F93A0
:100120002F933F934F935F936F937F938F939F93FF
:10013000AF93BF93CF93DF93EF93FF9380918601AB
:100140008F5F80938601883420F110918701609140
:10015000780070917900C12FD0E0CC0FDD1FCC0F5B
:10016000DD1FC657DE4F80E090E085D220E030E012
:1001700040EA5BE30ED3688379838A839B831035DF
:1001800020F41F5F1093870102C010928701109224
:100190008601BADFFF91EF91DF91CF91BF91AF91CF
:1001A0009F918F917F916F915F914F913F912F918F
:1001B0001F910F900FBE0F901F9018958093C40051
:1001C0009093C500E2ECF0E0808186608083E1ECF2
:1001D000F0E08081886980830895E0ECF0E0808120
:1001E0008823ECF78091C6000895EF92FF920F9359
:1001F0001F93CF93DF93F12C00E010E0D0E0C0E03C
:10020000E12C06C0EC2ECD2FD12F102F0F2DF82E64
:10021000E4DF92E7E912F6CFC536A1F7D13691F7C0
:10022000143681F7093771F79DE0F912EBCF8A3068
:1002300049F7DF91CF911F910F91FF90EF900895B3
:100240001F93CF93DF93D0E0C0E010E003C01C2FDA
:10025000CD2FD82FC2DF1F34D1F7CB34C1F7DD301B
:10026000B1F78A30A1F7DF91CF911F910895CF9315
:10027000C0E001C0C82FB1DFCE33E1F78032D1F743
:10028000CF910895E0ECF0E0908195FFFDCF809351
:10029000C60008951F920F920FB60F9211242F934C
:1002A0003F934F935F936F937F938F939F93AF93FE
:1002B000BF93EF93FF938091840180938501909188
:1002C00083019093840120918201209383013091D6
:1002D0008101309382014091800140938101F0912E
:1002E0007F01F0938001E0917E01E0937F017091A6
:1002F0007D0170937E0160917C0160937D0150913E
:10030000C60050937C018B32B9F49934A9F420359E
:1003100099F4343489F44C3279F4F03369F4EC32E2
:1003200059F4713349F46A3339F4513011F4299A8C
:1003300003C0511101C0299880917C018E3331F4A2
:10034000809189019FDF809188019CDFFF91EF916F
:10035000BF91AF919F918F917F916F915F914F91DD
:100360003F912F910F900FBE0F901F901895FF9205
:100370000F931F93CF93DF93062FF42E662341F044
:10038000C82FD92F10E089917DDF1F5F1013FBCF9D
:10039000F11002C055DF04C081E0F81201C067DF30
:1003A000DF91CF911F910F91FF9008951EDF40E0E4
:1003B00060916F0180E791E0DADF40E06091270112
:1003C00088E291E0D4DF40E06091360187E391E07C
:1003D000CEDF40E06091000181E091E0C8DF40E0C5
:1003E00060910F0180E191E0C2DF089542E06091E9
:1003F0005D018EE591E0BBDF0895CF93DF93CDB72C
:10040000DEB72C970FB6F894DEBF0FBECDBF209A93
:10041000219A109286011092870185E090E0CEDE4D
:10042000289A5DDEC3DF78946FDE4D805E806F803A
:10043000788489849A84AB84BC848D829E82AF82C6
:10044000B88614DE6B017C0169877A878B879C876D
:1004500020E030E0A901C301B20115D0A50194014B
:1004600012D09B01AC01C701B6010DD020E030E0F5
:1004700040E450E46CD0D3D070938901609388013C
:10048000B5DFD3CF5058BB27AA270ED048C139D1EA
:1004900030F03ED120F031F49F3F11F41EF42EC114
:1004A0000EF4E095E7FB24C1E92F4AD180F3BA1797
:1004B000620773078407950718F071F49EF562C10F
:1004C0000EF4E0950B2EBA2FA02D0B01B90190016F
:1004D0000C01CA01A0011124FF27591B99F0593FB3
:1004E00050F4503E68F11A16F040A22F232F342FFB
:1004F0004427585FF3CF469537952795A795F04049
:100500005395C9F77EF41F16BA0B620B730B840B5D
:10051000BAF09150A1F0FF0FBB1F661F771F881F15
:10052000C2F70EC0BA0F621F731F841F48F487956D
:1005300077956795B795F7959E3F08F0B3CF93955C
:10054000880F08F09927EE0F9795879508950CD09E
:10055000E6C0DED040F0D5D030F021F45F3F19F096
:10056000C7C0511110C1CAC0EBD098F39923C9F389
:100570005523B1F3951B550BBB27AA2762177307A9
:10058000840738F09F5F5F4F220F331F441FAA1F5D
:10059000A9F333D00E2E3AF0E0E830D0915050401D
:1005A000E695001CCAF729D0FE2F27D0660F771FCB
:1005B000881FBB1F261737074807AB07B0E809F0AD
:1005C000BB0B802DBF01FF2793585F4F2AF09E3F42
:1005D000510568F08DC0D7C05F3FECF3983EDCF367
:1005E000869577956795B795F7959F5FC9F7880FBB
:1005F000911D9695879597F90895E1E0660F771F0D
:10060000881FBB1F621773078407BA0720F0621B9D
:10061000730B840BBA0BEE1F88F7E095089598D002
:1006200088F09F5790F0B92F9927B751A0F0D1F0DB
:10063000660F771F881F991F1AF0BA95C9F712C065
:10064000B13081F09FD0B1E008959CC0672F782F22
:100650008827B85F39F0B93FCCF3869577956795D1
:10066000B395D9F73EF490958095709561957F4F3D
:100670008F4F9F4F0895E89409C097FB3EF49095E3
:100680008095709561957F4F8F4F9F4F9923A9F06B
:10069000F92F96E9BB279395F695879577956795FA
:1006A000B795F111F8CFFAF4BB0F11F460FF1BC03E
:1006B0006F5F7F4F8F4F9F4F16C0882311F096E9D1
:1006C00011C0772321F09EE8872F762F05C066237F
:1006D00071F096E8862F70E060E02AF09A95660F38
:1006E000771F881FDAF7880F9695879597F90895F1
:1006F00097F99F6780E870E060E008959FEF80ECD5
:10070000089500240A941616170618060906089577
:1007100000240A9412161306140605060895092EDD
:100720000394000C11F4882352F0BB0F40F4BF2B4C
:1007300011F460FF04C06F5F7F4F8F4F9F4F08958C
:1007400057FD9058440F551F59F05F3F71F0479582
:10075000880F97FB991F61F09F3F79F08795089567
:10076000121613061406551FF2CF4695F1DF08C086
:10077000161617061806991FF1CF869571056105A3
:1007800008940895E894BB2766277727CB0197F94B
:1007900008950BD0C4CFB5DF28F0BADF18F0952349
:1007A00009F0A6CFABCF1124EECFCADFA0F3959FFF
:1007B000D1F3950F50E0551F629FF001729FBB2748
:1007C000F00DB11D639FAA27F00DB11DAA1F649FF4
:1007D0006627B00DA11D661F829F2227B00DA11DA7
:1007E000621F739FB00DA11D621F839FA00D611D2D
:1007F000221F749F3327A00D611D231F849F600D4E
:10080000211D822F762F6A2F11249F5750408AF086
:10081000E1F088234AF0EE0FFF1FBB1F661F771F12
:10082000881F91505040A9F79E3F510570F060CF4E
:10083000AACF5F3FECF3983EDCF3869577956795FA
:10084000B795F795E7959F5FC1F7FE2B880F911D30
:100850009695879597F9089511F40EF44FCF3EC001
:1008600077DFD0F39923D9F3CEF39F57550B87FF4A
:1008700043D00024A0E640EA900180585695979511
:1008800028F4805C660F771F881F20F02617370733
:10089000480730F4621B730B840B202931294A2B43
:1008A000A69517940794202531254A2758F7660FF7
:1008B000771F881F20F026173707480730F4620B90
:1008C000730B840B200D311D411DA09581F7B901DB
:1008D000842F9158880F9695879508959F3F31F002
:1008E000915020F4879577956795B795880F911D5E
:1008F0009695879597F9089591505040660F771F08
:0A090000881FD2F70895F894FFCF86
:10090A000D41542B4349504D55583D310D0A00169F
:10091A0041542B4349505345525645523D312C318F
:10092A00323334350D0A000D41542B43574D4F4491
:10093A00453D320D0A002541542B43575341503D42
:10094A00224D656469646F72222C22656D62617240
:10095A006361646F73222C352C330D0A00104154E5
:10096A002B43495053454E443D302C320D0A000A60
:0C097A0041542B43575141500D0A00001E
:00000001FF
